:020000040000fa
:04025c00f02c000082
:020000040000fa
:04021000f02c0000ce
:020000040000fa
:04027400f02c00006a
:020000040000fa
:04033400f02c0000a9
:020000040000fa
:04035c00f02c000081
:020000040000fa
:04027000f02c00006e
:020000040000fa
:04022c00f02c0000b2
:020000040000fa
:04023c00f02c0000a2
:020000040000fa
:0402bc00f02c000022
:020000040000fa
:0402c000f02c00001e
:020000040000fa
:0402c400f02c00001a
:020000040000fa
:0402c800f02c000016
:020000040000fa
:04028000f02c00005e
:020000040000fa
:04028400f02c00005a
:020000040000fa
:04039c00f02c000041
:020000040000fa
:04022800f02c0000b6
:020000040000fa
:04027800f02c000066
:020000040000fa
:04029c00f02c000042
:020000040000fa
:0402fc00f02c0000e2
:020000040000fa
:04030000f02c0000dd
:020000040000fa
:04026000f02c00007e
:020000040000fa
:04026400f02c00007a
:020000040000fa
:04027c00f02c000062
:020000040000fa
:04028800f02c000056
:020000040000fa
:0402b000f02c00002e
:020000040000fa
:0402b400f02c00002a
:020000040000fa
:0402b800f02c000026
:020000040000fa
:04023800f02c0000a6
:020000040000fa
:0402e000f02c0000fe
:020000040000fa
:0402e400f02c0000fa
:020000040000fa
:0402e800f02c0000f6
:020000040000fa
:0402f400f02c0000ea
:020000040000fa
:0402f800f02c0000e6
:020000040000fa
:04030400f02c0000d9
:020000040000fa
:04030800f02c0000d5
:020000040000fa
:04030c00f02c0000d1
:020000040000fa
:04031000f02c0000cd
:020000040000fa
:04031400f02c0000c9
:020000040000fa
:04031800f02c0000c5
:020000040000fa
:04031c00f02c0000c1
:020000040000fa
:04032400f02c0000b9
:020000040000fa
:04032800f02c0000b5
:020000040000fa
:04033800f02c0000a5
:020000040000fa
:04033c00f02c0000a1
:020000040000fa
:04034000f02c00009d
:020000040000fa
:04034400f02c000099
:020000040000fa
:04034c00f02c000091
:020000040000fa
:04035000f02c00008d
:020000040000fa
:04035400f02c000089
:020000040000fa
:04035800f02c000085
:020000040000fa
:04036000f02c00007d
:020000040000fa
:04036400f02c000079
:020000040000fa
:04036800f02c000075
:020000040000fa
:04034800f02c000095
:020000040000fa
:04026c00f02c000072
:020000040000fa
:0402f000f02c0000ee
:020000040000fa
:04037c00f02c000061
:020000040000fa
:04021800f02c0000c6
:020000040000fa
:04023000f02c0000ae
:020000040000fa
:04024000f02c00009e
:020000040000fa
:04028c00f02c000052
:020000040000fa
:04029000f02c00004e
:020000040000fa
:0402cc00f02c000012
:020000040000fa
:0402d000f02c00000e
:020000040000fa
:0402d400f02c00000a
:020000040000fa
:0402d800f02c000006
:020000040000fa
:04039800f02c000045
:020000040000fa
:04020c00f02c0000d2
:020000040000fa
:0402dc00f02c000002
:020000040000fa
:04032000f02c0000bd
:020000040000fa
:04020800f02c0000d6
:020000040000fa
:04021c00f02c0000c2
:020000040000fa
:04022000f02c0000be
:020000040000fa
:04022400f02c0000ba
:020000040000fa
:04026800f02c000076
:020000040000fa
:0402ec00f02c0000f2
:020000040000fa
:04037800f02c000065
:020000040000fa
:04024c00f02c000092
:020000040000fa
:04025000f02c00008e
:020000040000fa
:0402a800f02c000036
:020000040000fa
:0402ac00f02c000032
:020000040000fa
:04039000f02c00004d
:020000040000fa
:04039400f02c000049
:020000040000fa
:04021400f02c0000ca
:020000040000fa
:04023400f02c0000aa
:020000040000fa
:04024400f02c00009a
:020000040000fa
:04024800f02c000096
:020000040000fa
:04029400f02c00004a
:020000040000fa
:04029800f02c000046
:020000040000fa
:04032c00f02c0000b1
:020000040000fa
:04025400f02c00008a
:020000040000fa
:04025800f02c000086
:020000040000fa
:04033000f02c0000ad
:020000040000fa
:0402a000f02c00003e
:020000040000fa
:0402a400f02c00003a
:020000040000fa
:04036c00f02c000071
:020000040000fa
:04037000f02c00006d
:020000040000fa
:04037400f02c000069
:020000040000fa
:04038400f02c000059
:020000040000fa
:04038800f02c000055
:020000040000fa
:04038c00f02c000051
:020000040000fa
:04038000f02c00005d
:020000040000fa
:080000001011040000000000d3
:020000040000fa
:102220000fa820000eff27000e018800000000000c
:10223000000020000000e000020032000001200049
:1022400020028800140007007b0007000000e00067
:1022500003003a0080cc2200010020000200370079
:102260000000200001002000810f700001003200fa
:1022700014000700000020000000e000020032000f
:1022800000000200000000006c29020000000000b5
:102290000040da000000fe004440a900a006200033
:1022a0000000e000030032000020200090018800c0
:1022b0004440a800000006008a1f78008b1f7800a9
:1022c00000000600a1028800800478000000eb00f6
:1022d0001f003700e284440054a0b4009905ba00fe
:1022e000e284440054a0b4009906ba00e284440099
:1022f00054a0b4000006eb00476fde00fd07b200fb
:10230000ae018800636ce10003003a00eaff0700b9
:102310000000eb000e003700606ce10008003a009e
:10232000004deb000a05e800020039003420ec0003
:102330000af0a0008b05e900f9ff3e000400370019
:102340006168e100010032000086eb000b0007002d
:1023500019c7ba001905ba000e04e00003003a00dc
:102360000a00e000dbff3a0000000600fe07b200b2
:10237000ae0288008a047800f5ff37000cd0a30075
:10238000e20f4d001c00390089027800354dba007b
:102390000a05e800020039003420ec000af0a00031
:1023a0008b05e9000f003200254dba000a05e80050
:1023b000020039003420ec000af0a0008b05e9008f
:1023c000080032000c00e0000600320015cdba0013
:1023d0000a05e800020039003420ec000af0a000f1
:1023e0008b05e9008984e80054a0b4000b00e000ec
:1023f000e2ff3a00000006009902ba00055d78008d
:102400008b05e900f7ff3200c82ade00055d780081
:102410008b05e900f3ff32000c00e000f1ff320011
:1024200019ddba00eeff3700101e040000000000a6
:0c2430005226040000000000000005001f
:020000040000fa
:102000001011040000000000f02c0400000000008b
:10201000f02c040000000000f02c04000000000080
:10202000f02c040000000000f02c04000000000070
:10203000f02c040000000000f02c04000000000060
:10204000f02c040000000000f02c04000000000050
:10205000f02c040000000000f02c04000000000040
:10206000f02c040000000000f02c04000000000030
:10207000f02c040000000000f02c04000000000020
:10208000f02c040000000000f02c04000000000010
:10209000f02c040000000000f02c04000000000000
:1020a000f02c040000000000f02c040000000000f0
:1020b000f02c040000000000f02c040000000000e0
:1020c000f02c040000000000f02c040000000000d0
:1020d000f02c040000000000f02c040000000000c0
:1020e000f02c040000000000f02c040000000000b0
:1020f000f02c040000000000f02c040000000000a0
:10210000f02c040000000000f02c0400000000008f
:10211000f02c040000000000f02c0400000000007f
:10212000f02c040000000000f02c0400000000006f
:10213000f02c040000000000f02c0400000000005f
:10214000f02c040000000000f02c0400000000004f
:10215000f02c040000000000f02c0400000000003f
:10216000f02c040000000000f02c0400000000002f
:10217000f02c040000000000f02c0400000000001f
:10218000f02c040000000000f02c0400000000000f
:10219000f02c040000000000f02c040000000000ff
:1021a000f02c040000000000f02c040000000000ef
:1021b000f02c040000000000f02c040000000000df
:1021c000f02c040000000000f02c040000000000cf
:1021d000f02c0400000000009c2c04000000000013
:1021e000f02c040000000000f02c040000000000af
:1021f000f02c040000000000f02c0400000000009f
:10220000f02c040000000000f02c0400000000008e
:10221000f02c040000000000f02c0400000000007e
:020000040000fa
:1000080004100000081000000c1000001010000080
:10001800141000000c1100000c1100000c1100005d
:10002800181000001c100000201000002410000010
:100038000c110000281000002c10000030100000e7
:1000480034100000381000003c1000004010000080
:1000580044100000481000000c1100000c110000b2
:100068004c10000050100000541000005810000000
:100078005c1000000c11000060100000641000000b
:100088000c110000681000006c10000070100000d7
:1000980074100000781000007c1000008010000030
:1000a80084100000881000000c1100000c110000e2
:1000b8000c1100008c10000090100000941000003b
:1000c800981000009c100000a0100000a410000070
:1000d800a8100000ac1000000c1100000c1100006a
:1000e8000c110000b0100000b41000000c1100004a
:1000f8000c110000b8100000bc1000000c1100002a
:100108000c1100000c1100000c1100000c11000073
:100118000c1100000c110000c01000000c110000b0
:100128000c110000c4100000c8100000cc10000022
:100138000c1100000c1100000c1100000c11000043
:10014800d01000000c1100000c1100000c11000070
:100158000c110000d41000000c1100000c1100005c
:100168000c110000d8100000dc100000e0100000a6
:10017800e4100000e8100000ec100000f01000008f
:10018800f4100000f8100000fc100000001100003e
:1001980004110000081100000c1100000c110000ef
:1001a8000c1100000c1100000c1100000c110000d3
:1001b8000c1100000c1100000c1100000c110000c3
:1001c8000c1100000c1100000c1100000c110000b3
:1001d8000c1100000c1100000c1100000c110000a3
:1001e8000c1100000c1100000c1100000c11000093
:0801f8000c1100000c110000c5
:020000040000fa
:10243c00120100000002000000000000004000003b
:10244c0066660000030000000000000001020000ae
:10245c000001000009020000120000000101000050
:10246c0000a0000032090000040000000000000081
:10247c00ff000000ff000000309200000403000089
:10248c00090400001a0300004f0000006c0000005b
:10249c00690000006e0000002000000043000000f6
:1024ac006f0000006c0000006c0000006500000074
:1024bc0067000000650000002003000050000000d1
:1024cc00490000004300000032000000340000000e
:1024dc00460000004a0000003100000032000000fd
:1024ec0038000000470000004200000032000000ed
:1024fc0030000000360000004492000048920000ba
:04250c0062920000d7
:020000040000fa
:102510000000fa00d8a2a900daa2a9000080fa00ff
:10252000000006000400fa00004f780011479800f0
:1025300022479800daa2a800000000000000000076
:102540000000000000000000000000000170a60074
:10255000daa2a90000000000000000000000000056
:102560000000000000000000daa2a9000000000046
:10257000000000000000000000000000000000005b
:10258000daa2a80000000000000000000000000027
:1025900000000000000000000160a600daa2a9000f
:1025a000000000000000000000000000000000002b
:1025b00000000000daa2a9000000000000000000f6
:1025c000000000000000000000000000daa2a800e7
:1025d00000000000000000000000000000000000fb
:1025e000000000000150a600daa2a90000000000cf
:1025f00000000000000000000000000000000000db
:10260000daa2a900000000000000000000000000a5
:102610000000000000000000daa2a8000000000096
:1026200000000000000000000000000000000000aa
:102630000140a600daa2a90000000000000000008e
:10264000000000000000000000000000daa2a90065
:10265000000000000000000000000000000000007a
:1026600000000000daa2a800000000000000000046
:102670000000000000000000000000000130a60083
:10268000daa2a90000000000000000000000000025
:102690000000000000000000daa2a9000000000015
:1026a000000000000000000000000000000000002a
:1026b000daa2a800000000000000000000000000f6
:1026c00000000000000000000120a600daa2a9001e
:1026d00000000000000000000000000000000000fa
:1026e00000000000daa2a9000000000000000000c5
:1026f000000000000000000000000000daa2a800b6
:1027000000000000000000000000000000000000c9
:10271000000000000110a600daa2a90000000000dd
:1027200000000000000000000000000000000000a9
:10273000daa2a90000000000000000000000000074
:102740000000000000000000daa2a8000000000065
:102750000000000000000000000000000000000079
:102760000100a600daa2a90000000000000000009d
:10277000000000000000000000000000daa2a90034
:102780000000000000000000000000000000000049
:1027900000000000daa2a800000000000000000015
:1027a0000000000000000000000000000070a60013
:1027b000daa2a900000000000000000000000000f4
:1027c0000000000000000000daa2a90000000000e4
:1027d00000000000000000000000000000000000f9
:1027e000daa2a800000000000000000000000000c5
:1027f00000000000000000000060a600daa2a900ae
:1028000000000000000000000000000000000000c8
:1028100000000000daa2a900000000000000000093
:10282000000000000000000000000000daa2a80084
:102830000000000000000000000000000000000098
:10284000000000000050a600daa2a900000000006d
:102850000000000000000000000000000000000078
:10286000daa2a90000000000000000000000000043
:102870000000000000000000daa2a8000000000034
:102880000000000000000000000000000000000048
:102890000040a600daa2a90000000000000000002d
:1028a000000000000000000000000000daa2a90003
:1028b0000000000000000000000000000000000018
:1028c00000000000daa2a8000000000000000000e4
:1028d0000000000000000000000000000030a60022
:1028e000daa2a900000000000000000000000000c3
:1028f0000000000000000000daa2a90000000000b3
:1029000000000000000000000000000000000000c7
:10291000daa2a80000000000000000000000000093
:1029200000000000000000000020a600daa2a900bc
:102930000000000000000000000000000000000097
:1029400000000000daa2a900000000000000000062
:10295000000000000000000000000000daa2a80053
:102960000000000000000000000000000000000067
:10297000000000000010a600daa2a900000000007c
:102980000000000000000000000000000000000047
:10299000daa2a90000000000000000000000000012
:1029a0000000000000000000daa2a8000000000003
:1029b0000000000000000000000000000000000017
:1029c0000000a600daa2a90000000000000000003c
:1029d000000000000000000000000000daa2a900d2
:1029e00000000000000000000000000000000000e7
:1029f00000000000daa2a8000000000000000000b3
:102a00000000000000000000000000000270a600ae
:102a1000daa2a90000000000000000000000000091
:102a20000000000000000000daa2a9000000000081
:102a30000000000000000000000000000000000096
:102a4000daa2a80000000000000000000000000062
:102a500000000000000000000260a600daa2a90049
:102a60000000000000000000000000000000000066
:102a700000000000daa2a900000000000000000031
:102a8000000000000000000000000000daa2a80022
:102a90000000000000000000000000000000000036
:102aa000000000000250a600daa2a9000000000009
:102ab0000000000000000000000000000000000016
:102ac000daa2a900000000000000000000000000e1
:102ad0000000000000000000daa2a80000000000d2
:102ae00000000000000000000000000000000000e6
:102af0000240a600daa2a9000000000000000000c9
:102b0000000000000000000000000000daa2a900a0
:102b100000000000000000000000000000000000b5
:102b200000000000daa2a800000000000000000081
:102b30000000000000000000000000000230a600bd
:102b4000daa2a90000000000000000000000000060
:102b50000000000000000000daa2a9000000000050
:102b60000000000000000000000000000000000065
:102b7000daa2a80000000000000000000000000031
:102b800000000000000000000220a600daa2a90058
:102b90000000000000000000000000000000000035
:102ba00000000000daa2a900000000000000000000
:102bb000000000000000000000000000daa2a800f1
:102bc0000000000000000000000000000000000005
:102bd000000000000210a600daa2a9000000000018
:102be00000000000000000000000000000000000e5
:102bf000daa2a900000000000000000000000000b0
:102c00000000000000000000daa2a80000000000a0
:102c100000000000000000000000000000000000b4
:102c20000200a600daa2a9000000000000000000d7
:102c3000000000000000000000000000daa2a9006f
:102c40000000000000000000000000000000000084
:102c5000000000000080fa00000006000400fa00f6
:102c600010079800ff3ffc000000eb00000f780009
:102c7000050037000041eb008040eb000040eb0016
:102c800028fe07001e0fe8001e0090009e0078003e
:102c9000808f5000f7ff39005220ef000080fa00cb
:102ca000000006000400fa00004f78001147980069
:102cb00022479800daa2a8000000000000000000ef
:102cc0000000000000000000000000000000000004
:102cd000000000000170a600daa2a90000000000b8
:102ce00000000000000000000000000000000000e4
:102cf00000000000000000000000000000000000d4
:102d0000daa2a9000000000000000000000000009e
:102d100000000000000000000000000000000000b3
:102d200000000000000000000000000000000000a3
:102d30000000000000000000000000000000000093
:102d40000000000000000000000000000000000083
:102d5000daa2a8000000000000000000000000004f
:102d60000000000000000000000000000000000063
:102d70000160a600daa2a900000000000000000027
:102d80000000000000000000000000000000000043
:102d9000000000000000000000000000daa2a9000e
:102da0000000000000000000000000000000000023
:102db0000000000000000000000000000000000013
:102dc0000000000000000000000000000000000003
:102dd00000000000000000000000000000000000f3
:102de000000000000000000000000000daa2a800bf
:102df00000000000000000000000000000000000d3
:102e00000000000000000000000000000150a600cb
:102e1000daa2a9000000000000000000000000008d
:102e200000000000000000000000000000000000a2
:102e30000000000000000000daa2a900000000006d
:102e40000000000000000000000000000000000082
:102e50000000000000000000000000000000000072
:102e60000000000000000000000000000000000062
:102e70000000000000000000000000000000000052
:102e80000000000000000000daa2a800000000001e
:102e90000000000000000000000000000000000032
:102ea00000000000000000000140a600daa2a90016
:102eb0000000000000000000000000000000000012
:102ec0000000000000000000000000000000000002
:102ed00000000000daa2a9000000000000000000cd
:102ee00000000000000000000000000000000000e2
:102ef00000000000000000000000000000000000d2
:102f000000000000000000000000000000000000c1
:102f100000000000000000000000000000000000b1
:102f200000000000daa2a80000000000000000007d
:102f30000000000000000000000000000000000091
:102f4000000000000130a600daa2a9000000000085
:102f50000000000000000000000000000000000071
:102f60000000000000000000000000000000000061
:102f7000daa2a9000000000000000000000000002c
:102f80000000000000000000000000000000000041
:102f90000000000000000000000000000000000031
:102fa0000000000000000000000000000000000021
:102fb0000000000000000000000000000000000011
:102fc000daa2a800000000000000000000000000dd
:102fd00000000000000000000000000000000000f1
:102fe0000120a600daa2a9000000000000000000f5
:102ff00000000000000000000000000000000000d1
:10300000000000000000000000000000daa2a9009b
:1030100000000000000000000000000000000000b0
:1030200000000000000000000000000000000000a0
:103030000000000000000000000000000000000090
:103040000000000000000000000000000000000080
:10305000000000000000000000000000daa2a8004c
:103060000000000000000000000000000000000060
:103070000000000000000000000000000110a60099
:10308000daa2a9000000000000000000000000001b
:103090000000000000000000000000000000000030
:1030a0000000000000000000daa2a90000000000fb
:1030b0000000000000000000000000000000000010
:1030c0000000000000000000000000000000000000
:1030d00000000000000000000000000000000000f0
:1030e00000000000000000000000000000000000e0
:1030f0000000000000000000daa2a80000000000ac
:1031000000000000000000000000000000000000bf
:1031100000000000000000000100a600daa2a900e3
:10312000000000000000000000000000000000009f
:10313000000000000000000000000000000000008f
:1031400000000000daa2a90000000000000000005a
:10315000000000000000000000000000000000006f
:10316000000000000000000000000000000000005f
:10317000000000000000000000000000000000004f
:10318000000000000000000000000000000000003f
:1031900000000000daa2a80000000000000000000b
:1031a000000000000000000000000000000000001f
:1031b000000000000070a600daa2a90000000000d4
:1031c00000000000000000000000000000000000ff
:1031d00000000000000000000000000000000000ef
:1031e000daa2a900000000000000000000000000ba
:1031f00000000000000000000000000000000000cf
:1032000000000000000000000000000000000000be
:1032100000000000000000000000000000000000ae
:10322000000000000000000000000000000000009e
:10323000daa2a8000000000000000000000000006a
:10324000000000000000000000000000000000007e
:103250000060a600daa2a900000000000000000043
:10326000000000000000000000000000000000005e
:10327000000000000000000000000000daa2a90029
:10328000000000000000000000000000000000003e
:10329000000000000000000000000000000000002e
:1032a000000000000000000000000000000000001e
:1032b000000000000000000000000000000000000e
:1032c000000000000000000000000000daa2a800da
:1032d00000000000000000000000000000000000ee
:1032e0000000000000000000000000000050a600e8
:1032f000daa2a900000000000000000000000000a9
:1033000000000000000000000000000000000000bd
:103310000000000000000000daa2a9000000000088
:10332000000000000000000000000000000000009d
:10333000000000000000000000000000000000008d
:10334000000000000000000000000000000000007d
:10335000000000000000000000000000000000006d
:103360000000000000000000daa2a8000000000039
:10337000000000000000000000000000000000004d
:1033800000000000000000000040a600daa2a90032
:10339000000000000000000000000000000000002d
:1033a000000000000000000000000000000000001d
:1033b00000000000daa2a9000000000000000000e8
:1033c00000000000000000000000000000000000fd
:1033d00000000000000000000000000000000000ed
:1033e00000000000000000000000000000000000dd
:1033f00000000000000000000000000000000000cd
:1034000000000000daa2a800000000000000000098
:1034100000000000000000000000000000000000ac
:10342000000000000030a600daa2a90000000000a1
:10343000000000000000000000000000000000008c
:10344000000000000000000000000000000000007c
:10345000daa2a90000000000000000000000000047
:10346000000000000000000000000000000000005c
:10347000000000000000000000000000000000004c
:10348000000000000000000000000000000000003c
:10349000000000000000000000000000000000002c
:1034a000daa2a800000000000000000000000000f8
:1034b000000000000000000000000000000000000c
:1034c0000020a600daa2a900000000000000000011
:1034d00000000000000000000000000000000000ec
:1034e000000000000000000000000000daa2a900b7
:1034f00000000000000000000000000000000000cc
:1035000000000000000000000000000000000000bb
:1035100000000000000000000000000000000000ab
:10352000000000000000000000000000000000009b
:10353000000000000000000000000000daa2a80067
:10354000000000000000000000000000000000007b
:103550000000000000000000000000000010a600b5
:10356000daa2a90000000000000000000000000036
:10357000000000000000000000000000000000004b
:103580000000000000000000daa2a9000000000016
:10359000000000000000000000000000000000002b
:1035a000000000000000000000000000000000001b
:1035b000000000000000000000000000000000000b
:1035c00000000000000000000000000000000000fb
:1035d0000000000000000000daa2a80000000000c7
:1035e00000000000000000000000000000000000db
:1035f00000000000000000000000a600daa2a90000
:1036000000000000000000000000000000000000ba
:1036100000000000000000000000000000000000aa
:1036200000000000daa2a900000000000000000075
:10363000000000000000000000000000000000008a
:10364000000000000000000000000000000000007a
:10365000000000000000000000000000000000006a
:10366000000000000000000000000000000000005a
:1036700000000000daa2a800000000000000000026
:10368000000000000000000000000000000000003a
:10369000000000000270a600daa2a90000000000ed
:1036a000000000000000000000000000000000001a
:1036b000000000000000000000000000000000000a
:1036c000daa2a900000000000000000000000000d5
:1036d00000000000000000000000000000000000ea
:1036e00000000000000000000000000000000000da
:1036f00000000000000000000000000000000000ca
:1037000000000000000000000000000000000000b9
:10371000daa2a80000000000000000000000000085
:103720000000000000000000000000000000000099
:103730000260a600daa2a90000000000000000005c
:103740000000000000000000000000000000000079
:10375000000000000000000000000000daa2a90044
:103760000000000000000000000000000000000059
:103770000000000000000000000000000000000049
:103780000000000000000000000000000000000039
:103790000000000000000000000000000000000029
:1037a000000000000000000000000000daa2a800f5
:1037b0000000000000000000000000000000000009
:1037c0000000000000000000000000000250a60001
:1037d000daa2a900000000000000000000000000c4
:1037e00000000000000000000000000000000000d9
:1037f0000000000000000000daa2a90000000000a4
:1038000000000000000000000000000000000000b8
:1038100000000000000000000000000000000000a8
:103820000000000000000000000000000000000098
:103830000000000000000000000000000000000088
:103840000000000000000000daa2a8000000000054
:103850000000000000000000000000000000000068
:1038600000000000000000000240a600daa2a9004b
:103870000000000000000000000000000000000048
:103880000000000000000000000000000000000038
:1038900000000000daa2a900000000000000000003
:1038a0000000000000000000000000000000000018
:1038b0000000000000000000000000000000000008
:1038c00000000000000000000000000000000000f8
:1038d00000000000000000000000000000000000e8
:1038e00000000000daa2a8000000000000000000b4
:1038f00000000000000000000000000000000000c8
:10390000000000000230a600daa2a90000000000ba
:1039100000000000000000000000000000000000a7
:103920000000000000000000000000000000000097
:10393000daa2a90000000000000000000000000062
:103940000000000000000000000000000000000077
:103950000000000000000000000000000000000067
:103960000000000000000000000000000000000057
:103970000000000000000000000000000000000047
:10398000daa2a80000000000000000000000000013
:103990000000000000000000000000000000000027
:1039a0000220a600daa2a90000000000000000002a
:1039b0000000000000000000000000000000000007
:1039c000000000000000000000000000daa2a900d2
:1039d00000000000000000000000000000000000e7
:1039e00000000000000000000000000000000000d7
:1039f00000000000000000000000000000000000c7
:103a000000000000000000000000000000000000b6
:103a1000000000000000000000000000daa2a80082
:103a20000000000000000000000000000000000096
:103a30000000000000000000000000000210a600ce
:103a4000daa2a90000000000000000000000000051
:103a50000000000000000000000000000000000066
:103a60000000000000000000daa2a9000000000031
:103a70000000000000000000000000000000000046
:103a80000000000000000000000000000000000036
:103a90000000000000000000000000000000000026
:103aa0000000000000000000000000000000000016
:103ab0000000000000000000daa2a80000000000e2
:103ac00000000000000000000000000000000000f6
:103ad00000000000000000000200a600daa2a90019
:103ae00000000000000000000000000000000000d6
:103af00000000000000000000000000000000000c6
:103b000000000000daa2a900000000000000000090
:103b100000000000000000000000000000000000a5
:103b20000000000000000000000000000000000095
:103b30000000000000000000000000000000000085
:103b40000000000000000000000000000000000075
:103b5000000000000080fa00000006000400fa00e7
:103b600010079800ff3ffc000000eb00000f7800fa
:103b7000050037000041eb008040eb000040eb0007
:103b800048fc07001e0fe8001e0090009e00780011
:103b9000808f5000f7ff39005220ef000080fa00bc
:103ba000000006000600fa0040479800a04a2000e6
:103bb00010079800ce409000014f780013003700a6
:103bc0001e80fb00000040009e009000008040002e
:103bd0008000eb00010878001e80fb0080004000a0
:103be000208b2000008040008000eb00010878005e
:103bf0001e80fb0080004000208d200000804000df
:103c00008000eb00010878001e4fe8001e4078009d
:103c1000ef4f5000eaff36000080fa000000060077
:103c20000000fa00608a2000104078000080fb004d
:103c3000b0248800b02480000000e00003003a00b7
:103c400010c0b30010e8b7000200370020c0b30076
:103c500010e8b7000000eb00904588000080fa00f3
:103c6000000006000000fa009ec0a9009424a800ed
:103c70009624ef00f00f2000702488009424a900ff
:103c80000040eb00c7ff0700d0002000502588004f
:103c900000a0200001c4b300014878004082200049
:103ca0001050880010a0200081c8b300014878009f
:103cb000408620003050880050a0200081c0b30012
:103cc00001487800a624ef00a824ef0000a02000ff
:103cd0004800de00c02488008644a80086e4a800ce
:103ce0008804a80094a4a9000d68ef001068ef00f4
:103cf00010c0b3000ee8b700408a200080c0eb007f
:103d000001487800508a200080c0eb00014878000c
:103d10000000eb00704588000000eb008045880043
:103d200000000000a124800000042000008060004a
:103d30000000e000fbff3a00f00f20006024880044
:103d4000f00f2000802488008ec0a9009ec0a8002b
:103d50000080fa00000006000400fa0050248000f1
:103d6000620060000000e00005003200f00f20005b
:103d7000702488002000200050248800ba003700fa
:103d800050248000640060000000e0000300320066
:103d90004000200050248800b300370050248000e9
:103da000700060000000e00003003200000120000d
:103db00050248800ac00370051248000000220000d
:103dc000008060000000e0000300320000022000dc
:103dd00050248800a40037005124800000082000ef
:103de000008060000000e0000300320000082000b6
:103df000502488009c00370050248000610060003f
:103e00000000e000270032000d68ef0008003700d6
:103e10008000200050248800000000000000000006
:103e20000000000000000000000000000000000092
:103e300050248000680060000000e000f4ff3a00b9
:103e40000040eb0057ff070000a0200001c4b300b2
:103e500001487800408220001050880010a0200007
:103e600081c8b300014878004086200030508800a7
:103e700050a0200081c0b300014878009624ef00d4
:103e8000f00f200050248800d0002000502588002a
:103e900010c0b30010e8b70010c0b3000ee8b700c0
:103ea0007100370050248000680060000000e000ce
:103eb0006d003200902480004300de00c200dd006f
:103ec00000a02000008f40001e00780010409000ed
:103ed00001e8b7001e0078001040780000e8b70045
:103ee0001e00780010009000104088009024800090
:103ef000004078000fe8b7008000200050248800c0
:103f00000c68ef0001c8bf008080fb00c0032000e8
:103f10000080600041022000810f50000800320044
:103f200041032000810f500003003200e40f5000d5
:103f3000170032003d0037004e0007003b003700fd
:103f40000fc8bf000080fb004400de00204798003f
:103f50002e4090000080fb0080004000208b20005d
:103f600000804000100078000000e0002e003200c9
:103f70002e4090000080fb0080004000208b20003d
:103f8000008040001000780000000100270037008a
:103f90000fc8bf000080fb004400de0020479800ef
:103fa0002e4090000080fb0080004000208d20000b
:103fb00000804000100078000000e00007003200a0
:103fc0002e4090000080fb0080004000208d2000eb
:103fd0000080400010007800000001002e4090009a
:103fe0000004e00011003a00704580000000e0008d
:103ff0000e003a0000a0200001c4b3000148780080
:1040000010a0200081c8b3000148780040a0200023
:104010008040eb000148780050a0200081ccb30024
:104020000148780001003700000000000cc8bf0004
:104030000080fb0061006000004078000004e000a8
:104040000900320000a0200001c4b300014878003c
:1040500050a0200041c8b3000148780010a0200003
:1040600041c8b300014878008ec0a9000080fa0062
:10407000000006000200fa0011408000010f7800e5
:104080001e007800904078004080200001487800b1
:104090001e0fe8001e00780090407800408020004d
:1040a000114098001e0fe8001e0078009040780034
:1040b00040802000214098001e0fe8001e0078007c
:1040c0009040780040802000314098001e0fe800aa
:1040d0001e00780090407800408020004140980009
:1040e0001e0fe8001e0078009040780040802000fd
:1040f000514098001e0fe8001e00780090407800a4
:1041000040802000614098001e0fe8001e007800eb
:104110009040780040802000714098001e0fe80019
:1041200000a0200001c4b3000148780050a0200086
:1041300081c0b30001487800408020001040780022
:104140000004e000060035004080200030009000b0
:104150000000e0000200320080ccb3000100370014
:1041600080c8b30011a020008048780094a4a90062
:10417000408a200080c0eb0001487800508a20006f
:1041800080c0eb00014878000000eb00704588001b
:104190000000eb008045880040802000104078003f
:1041a0008080fb00000620000080600001022000eb
:1041b000810f50001100320001042000810f5000d7
:1041c000040032000000e00016003a001a00070068
:1041d00017003700c04080000000e00003003200fc
:1041e000c040800000000100110037000cc8bf0073
:1041f0000004a0000ce8b7000d003700b0408000bc
:104200000000e00003003200b04080000000010028
:10421000070037000cc8bf000004a0000ce8b7007e
:10422000030037000cc8bf000004a0000ce8b70072
:104230000080fa00000006000600fa00408020001e
:10424000104090000080fb00e60f5000ba013200e1
:10425000e60f50000c003c00e10f5000c10032009e
:10426000e10f500003003c000000e00012003200ab
:1042700085023700e30f5000ba003200e50f50000e
:104280008b01320080023700e90f5000200232001b
:10429000e90f500003003c00e80f5000110232000b
:1042a00079023700ea0f50003b023200eb0f50005a
:1042b0005402320074023700408020001040780021
:1042c0000080fb007f006000e10f5000130032000f
:1042d000e20f5000320032000000e0009c003a0083
:1042e00030508000e1802000914078000148780043
:1042f000305080000000e8008040eb00014878006a
:1043000040a0200021c0b3000148780050a0200048
:1043100081ccb300014878009100370010c8bf007d
:104320000080fb00e20f500003003200e30f50005a
:1043300005003200190037000cc8bf000004a000bf
:104340000ce8b70015003700408020004040900086
:104350000004e0000e003a00305080008040eb0086
:1043600001487800305080000000e8008040eb00f9
:104370000148780040a0200021c0b3000148780027
:1043800050a0200081ccb300014878000300370022
:104390000cc8bf000004a0000ce8b7007000370094
:1043a00010c8bf000080fb00e20f50000300320085
:1043b000e30f5000290032006100370040802000e8
:1043c000404090000080fb006f0060000000e000b3
:1043d0001e003a0031508000408020004040900094
:1043e0000004e00007003d0050a0200010407800cd
:1043f0000080fb00640060004280de000040780026
:104400000600370010a02000104078000080fb005c
:10441000640060004280de00004078008048780040
:10442000305080000000e8008040eb000148780038
:1044300040a0200021c0b3000148780050a0200017
:1044400081ccb30001487800030037000cc8bf00de
:104450000004a0000ce8b7003c003700a04a200090
:10446000000f780040802000404090006f406000c6
:10447000204798002e4090000080fb000000400084
:104480008000780040802000404090000000fb0049
:104490004f00de0001007000c200dd0000a020001f
:1044a00000804000200798002e4090000080fb0014
:1044b000000040001e004000900078004080200076
:1044c000404090000004e00002003d004000200059
:1044d0000100370080002000008060000000e00044
:1044e0001300320030508000ae00900091409000e8
:1044f0008180fb00e4806000c288de00814078009b
:1045000001487800305080000000e8008040eb0057
:104510000148780040a0200021c0b3000148780085
:1045200050a0200081ccb300014878000300370080
:104530000cc8bf000004a0000ce8b700030037005f
:104540000cc8bf000004a0000ce8b700040037004e
:104550000cc8bf000004a0000ce8b700cf01370072
:10456000ce01370040802000104078000080fb0022
:104570007f0060000000e00003003200e20f500006
:104580001c003200c5003700408020002040900011
:104590000080fb00e10f500012003a004080200034
:1045a00010409000e14f500004003a000ec8bf00d8
:1045b0000004a1000ee8b700030037000ec8bf00da
:1045c0000004a0000ee8b70040a020008040eb00ef
:1045d0000148780050a0200081ccb3000148780049
:1045e000030037000cc8bf000004a0000ce8b700af
:1045f000ae00370010c8bf000080fb00e20f500083
:1046000003003200e30f5000120032009f00370019
:1046100040802000404090000080fb006f00600060
:104620000000e00007003a0040a020008040eb00be
:104630000148780050a0200081ccb30001487800e8
:10464000030037000cc8bf000004a0000ce8b7004e
:1046500091003700a04a2000000f78004080200021
:10466000404090006f406000204798002e4090002e
:104670000004e000790032002e4090000080fb0032
:104680000000400080007800408020004040900002
:104690000000fb004f00de0001007000c200dd00e2
:1046a00000a02000008040002007980040802000eb
:1046b000404090000004e00030003d002e4090009b
:1046c0000080fb00000040001e0040001000780049
:1046d000640060000000e000240032004080200000
:1046e00010409000e14f500019003a002e40900019
:1046f0000080fb00000040009e0040002e40900023
:104700000080fb00000040001e0040001001780007
:10471000d00f200000006100800878002e0090007b
:1047200010409000804078000124a1002e009000ed
:10473000114098002e0090001040900080407800ba
:104740000164a0002e009000114098004300370043
:104750002e00900010409000804078000124a000be
:104760002e009000114098003c0037000cc8bf009c
:104770000004a0000ce8b700380037002e4090007d
:104780000080fb00000040001e0040001000780088
:10479000680060000000e0002d0032004080200032
:1047a00010409000e14f500019003a002e40900058
:1047b0000080fb00000040009e0040002e40900062
:1047c0000080fb00000040001e0040001001780047
:1047d000d00f200000006100800878002e009000bb
:1047e00010409000804078000124a1002e0090002d
:1047f000114098002e0090001040900080407800fa
:104800000164a1002e0090001140980006003700be
:104810002e00900010409000804078000124a000fd
:104820002e00900011409800408020001040900021
:10483000e14f500002003a0080c8b3000100370089
:1048400040c8b300ae0090009040980003003700cd
:104850000cc8bf000004a0000ce8b7000cc8bf00e3
:104860000080fb00610060000000e00006003a00ec
:1048700040a020008040eb000148780050a02000bc
:1048800081ccb30001487800030037000cc8bf009a
:104890000004a0000ce8b700040037000cc8bf00fb
:1048a0000004a0000ce8b700fc003700fb00370054
:1048b00040802000204090000004e00004003d0003
:1048c0000cc8bf000004a0000ce8b700f3003700dc
:1048d0004080200090407800408a20000148780005
:1048e0004080200090409000508a200001487800cd
:1048f000408020001000900030458800408020005b
:10490000200090004045880040802000300090004a
:104910005045880000e121009045880040a020001b
:104920008040eb000148780050a0200081ccb3000b
:1049300001487800d900370040802000904078007e
:10494000408a20000148780040802000904090007c
:10495000508a20000148780040802000100090001c
:1049600030458800408020002000900040458800ad
:10497000408020003000900050458800408020009a
:10498000304090000080fb00e20f50000b0032002e
:10499000e30f500024003200e10f500037003a00ce
:1049a000e0212900604588006045800010407800c3
:1049b0000080fb00704588003900370040802000ef
:1049c000204090000004e00013003a0040802000e6
:1049d000204090000080fb0080004000202429003f
:1049e000008040001000780060458800604580002d
:1049f0000080e80090407800e08a200001487800bc
:104a0000604580006300400090407800f08a2000fc
:104a100001487800220037000cc8bf000004a00045
:104a20000ce8b7001e0037004080200020409000b6
:104a3000e34f50000d003e004080200020409000d9
:104a40000080fb00800040002028290000804000fa
:104a500010007800604588006045800010407800b4
:104a60000080fb00704588000d0037000cc8bf00b7
:104a70000004a0000ce8b70009003700a040800047
:104a80000000e00003003200a040800000000100b0
:104a9000030037000cc8bf000004a0000ce8b700fa
:104aa0000cc8bf000080fb00610060000000e00057
:104ab00079003a002065220090458800408020005f
:104ac000b000900070458000808f500003003100de
:104ad0004080200030009000704588007100070081
:104ae0006e00370030508000d18020009140780067
:104af0000148780040a0200011c0b30001487800b0
:104b000050a0200081ccb30001487800630037003a
:104b10004080200020409000e14f50001a003e00ed
:104b200010c0b3001ffc0700408020002040900010
:104b30000de8b7000dc8bf000080fb000000e000da
:104b400003003a0020c0b30010e8b70007003700a8
:104b500030c0b30010e8b700904080000000e000d3
:104b600002003200904080000000010040a02000c0
:104b70008040eb000148780050a0200081ccb300b9
:104b800001487800450037000cc8bf000004a000b1
:104b90000ce8b7004100370010c8bf000080fb00e0
:104ba000e30f500013003a00408020004040900086
:104bb0000004e0000a003a00305080008040eb0022
:104bc0000148780040a0200011c0b30001487800df
:104bd00050a0200081ccb3000148780003003700ca
:104be0000cc8bf000004a0000ce8b70000000000e3
:104bf0002a0037000cc8bf000004a0000ce8b70072
:104c00002600370010c8bf000080fb00e30f5000f3
:104c100019003a0040802000404090000004e0006d
:104c200010003a0040802000204090000080fb00ef
:104c30000000e00007003a0040a020008040eb00a8
:104c40000148780050a0200081ccb30001487800d2
:104c5000070037000cc8bf000004a0000ce8b70034
:104c6000030037000cc8bf000004a0000ce8b70028
:104c700000000000090037000cc8bf000004a000bd
:104c80000ce8b700050037000cc8bf000004a00006
:104c90000ce8b70001003700000000000080fa00b7
:104ca000000006000200fa0071458000f0032000b9
:104cb000808f500005003e0070458000004f780056
:104cc0000000eb00704588000500370000c4b30009
:104cd000004f7800704580000004b10070458800e6
:104ce0000040eb00104798000c0037003150800066
:104cf0001e4090000080fb008080400060458000e6
:104d000010417800824878000000e8006045880083
:104d10001e4090000040e800104798001e409000a0
:104d20009e4f5000f1ff390040a020001e4878003f
:104d300050a020001040780000c0ea0002c4b30078
:104d40008240600080c8b30000c0700080407800de
:104d500050a0200001487800704580000000e0006d
:104d60000f003a00804580000000e00002003200a1
:104d70008045800000000100408a200080c0eb00d8
:104d800001487800508a200080c0eb00014878007c
:104d90000000eb00804588000000eb009045880093
:104da0000080fa00000006000200fa000040eb005c
:104db000004f7800090037006045800012508000e5
:104dc0009e80fb00810041009140780001487800fe
:104dd0000000e800604588001e4fe80000a02000a9
:104de000104078009e4f5000f3ff3e007145800058
:104df00000a02000104078000080fb0000805000e0
:104e000070458800704580000000e0000e00320010
:104e100000a0200001c4b3000148780010a02000c9
:104e20001040780000c0ea0002c4b3008240600075
:104e300080c8b30000c070008040780010a020003f
:104e4000014878000f003700804580000000e00036
:104e5000020032008045800000000100408a2000ee
:104e600080c0eb0001487800508a200080c0eb0031
:104e7000014878000000eb00804588000000eb004e
:104e8000904688000080fa00000006000200fa0048
:104e9000ff3ffc000000eb00000f78000b00370024
:104ea000209520001e004000104178002092200034
:104eb0001e00400090407800208f20001e0040001f
:104ec0001040780097f507001e0fe800f002200060
:104ed0009e007800808f5000f1ff36005220ef00d6
:104ee0000080fa00000006000200fa000000eb005b
:104ef000000f78000d003700208f20001e004000ba
:104f00008040eb0001487800209220001e00400005
:104f100080c0eb0001487800209520001e00400072
:104f20008040eb00014878001e0fe800f0022000ee
:104f30009e007800808f5000efff3400d3ff070001
:104f400000000000210480000008200000806000b4
:104f50000000e000fbff320084e0a9000000eb004d
:104f6000000f78000d003700208f20001e00400049
:104f70008040eb0001487800209220001e00400095
:104f80008040eb0001487800209520001e00400082
:104f90008040eb00014878001e0fe800f00220007e
:104fa0009e007800808f5000efff3400b7ff0700ad
:104fb0000000000021048000000820000080600044
:104fc0000000e000fbff320084e0a9000080fa004e
:104fd000000006000200fa000000eb00000f78005d
:104fe0000d003700208f20001e00400080c0eb0025
:104ff00001487800209220001e0040008040eb0015
:1050000001487800209520001e0040008040eb0001
:10501000014878001e0fe800f00220009e00780092
:10502000808f5000efff340098ff07000000000061
:105030002104800000082000008060000000e000e3
:10504000fbff320084e0a9000000eb00000f7800b5
:105050000d003700208f20001e0040008040eb0034
:1050600001487800209220001e0040008040eb00a4
:1050700001487800209520001e0040008040eb0091
:10508000014878001e0fe800f00220009e00780022
:10509000808f5000efff34007cff0700000000000d
:1050a0002104800000082000008060000000e00073
:1050b000fbff320084e0a9000080fa000000060037
:1050c0000200fa000000eb00000f78000d0037002e
:1050d000208f20001e0040008040eb000148780037
:1050e000209220001e00400001c8b3000148780053
:1050f000209520001e0040008040eb000148780011
:105100001e0fe800f00220009e007800808f500003
:10511000efff34005dff0700000000002004800066
:10512000680060000000e000fcff32008460a9001d
:105130000000eb00000f78000d003700208f2000ea
:105140001e0040008040eb000148780020922000c3
:105150001e0040008040eb000148780020952000b0
:105160001e00400001c8b300014878001e0fe8008f
:10517000f00220009e007800808f5000efff340086
:1051800042ff07000000000020048000680060006b
:105190000000e000fcff32008460a9000000eb008a
:1051a000000f78000d003700208f20001e00400007
:1051b00081ccb30001487800209220001e004000fe
:1051c00081ccb30001487800209520001e004000eb
:1051d0008040eb00014878001e0fe800f00220003c
:1051e0009e007800808f5000efff340027ff0700fb
:1051f0000000000020048000680060000000e00063
:10520000fcff32008460a9000000eb00000f780072
:105210000d003700208f20001e00400001c8b300a1
:1052200001487800209220001e0040008040eb00e2
:1052300001487800209520001e00400001c8b300fe
:10524000014878001e0fe800f00220009e00780060
:10525000808f5000efff34000cff070000000000bb
:1052600020048000680060000000e000fcff3200c5
:105270008460a9000080fa00000006000200fa0025
:105280000000eb00000f78000d003700208f200099
:105290001e0040008040eb00014878002092200072
:1052a0001e0040008040eb0001487800209520005f
:1052b0001e0040008040eb00014878001e0fe8000f
:1052c000f00220009e007800808f5000efff340035
:1052d0000080fa00000006000400fa0059010700ef
:1052e000dea2a8008af4070000032000200888003e
:1052f00090862100100888000021ef008460a9003a
:1053000005e1a800000320008008880040c32000b9
:10531000600888000621ef0084e0a90011e1a800e0
:105320000003200090088800308220007008880068
:105330000a21ef008500a90013e1a8000003200066
:10534000f0088800a0612000d00888001421ef0038
:105350008760a9001fe1a800000320000009880061
:10536000104e2000e00888001821ef008780a90077
:1053700021e1a800a0002000f040880001003700d3
:1053800000000000f04080008000eb00a200200040
:1053900003002000820f5000838f5800f8ff3e006a
:1053a000006001002a00370048003700670037001e
:1053b00086003700a50037000c003700c300370017
:1053c000e6003700f70037000b0137000000370018
:1053d000d0168000700060000000e0000200320083
:1053e00050002000f0408800150137001041800077
:1053f000e10f500001003a001e28ef00104180002c
:10540000e20f500002003a0010002000f040880037
:1054100010418000e30f500002003a0020002000fd
:10542000f040880010418000e40f500002003a0074
:1054300030002000f040880010418000e50f50004f
:1054400002003a0040002000f0408800fc003700d5
:105450008aff0700e04080002192200002c8b300cc
:10546000827078007090200001c8b3000148780075
:1054700086fe0700e04080000000e800e040880071
:10548000e140800000032000808f500002003a00bd
:105490001c28ef00010037000000000020048000fd
:1054a000680060000000e000fcff32008460a9009a
:1054b00050178000700060000000e0000200320021
:1054c00060002000f0408800dd0037006bff07001f
:1054d000e04080002192200002c8b3008270780072
:1054e0007090200001c8b3000148780067fe0700f3
:1054f000e04080000000e800e0408800e1408000db
:1055000000032000808f500002003a001c28ef00aa
:105510000100370000000000210480000008200086
:10552000008060000000e000fbff320084e0a90082
:1055300050178000700060000000e00002003200a0
:1055400060002000f0408800bd0037004bff0700de
:10555000e04080002192200002c8b30082707800f1
:105560007090200001c8b3000148780047fe070092
:10557000e04080000000e800e0408800e14080005a
:1055800000032000808f500002003a001c28ef002a
:1055900001003700000000002104800000102000fe
:1055a000008060000000e000fbff32008500a900e1
:1055b00050178000700060000000e0000200320020
:1055c00060002000f04088009d0037002bff07009e
:1055d000e04080002192200002c8b3008270780071
:1055e0007090200001c8b3000148780027fe070032
:1055f000e04080000000e800e0408800e1408000da
:1056000000032000808f500002003a001c28ef00a9
:1056100001003700000000003104800000802000fd
:10562000008060000000e000fbff32008760a900fe
:1056300050178000700060000000e000020032009f
:1056400060002000f04088007d0037000bff07005d
:10565000e04080002192200002c8b30082707800f0
:105660007090200001c8b3000148780007fe0700d1
:10567000e04080000000e800e0408800e140800059
:1056800000032000808f500002003a001c28ef0029
:1056900001003700000000003104800000002100fc
:1056a000008060000000e000fbff32008780a9005e
:1056b00050178000700060000000e000020032001f
:1056c00060002000f04088005d003700ebfe07001e
:1056d0007090200001c8b30001487800e0408000cd
:1056e0002192200002c8b30082707800e7fd070015
:1056f000e04080007500100000f0a7000000ea0004
:10570000100798001e0090000000e00010003a0012
:1057100010418000e40f500002003c0070002000a7
:10572000f040880010418000e50f500004003a006e
:10573000100020001041880090002000f0408800f8
:10574000104180000000e80010418800020037008e
:1057500080002000f040880039003700c7fe0700b5
:105760000000000020048000680060000000e000ed
:10577000fcff32008460a9000000eb00000f7800fd
:1057800002003700d8fd07001e0fe8001e00780059
:10579000e30f5000fbff340050002000f040880071
:1057a00027003700b5fe070000000000200480003d
:1057b000680060000000e000fcff32008460a90087
:1057c0000000eb00000f78000200370001fe070028
:1057d0001e0fe8001e007800e30f5000fbff3400ae
:1057e00010002000104188001c28ef00a0002000bd
:1057f000f040880012003700a0fe07000000000003
:1058000020048000680060000000e000fcff32001f
:105810008460a9000000eb00000f78000200370050
:1058200027fe07001e0fe8001e007800e90f500059
:10583000fbff3400a0002000f040880000000000c2
:10584000d0fe37000000fa0000102000203a880047
:10585000d8a2a800d882a800e882a800e8a2a800e0
:10586000c9e2a800e862a800d902a800d962a8008d
:10587000d922a800d942a800d802a800d822a8009e
:10588000d842a800d862a800c8a2a800c882a80070
:10589000c862a800c842a800c822a800c802a80080
:1058a000f003200010278800e424ef00e624ef0036
:1058b000ea24ef00ec24ef00000e2000001988001d
:1058c0002223ef0000c4200020198800500020008f
:1058d0004019880021e3a800d8e2a900dce2a90071
:1058e000e802a900ec02a900e822a900ec22a90024
:1058f000d1e2a800d182a800c982a8000080fa00e5
:10590000000006000200fa00000f78009e007800f8
:10591000411988002023a800000000000019800021
:10592000610060000000e000fcff32000018800011
:085930000080fa0000000600ef
:020000040000fa
:105938003600f800809fbe00829fbe00849fbe0094
:10594800869fbe003200f8003400f80010002000e6
:10595800a001880000202000900188000000fa00c3
:10596800fbf807000080fa003400f9003200f90063
:105978004f03be004f02be004f01be004f00be00e5
:085988003600f90000400600a2
:020000040000fa
:10599000f208000090000000800000001a080000db
:1059a0000800000080000000220800000200000043
:1059b000820000000100000024080000ce0000006a
:1059c00080000000000a000080000000800000004d
:1059d000000800001a000000800000000000000025
:020000040000fa
:0859e0000040da000000fe00a7
:00000001FF
